{
  "contractName": "OrgManager",
  "abi": [
    {
      "inputs": [],
      "stateMutability": "nonpayable",
      "type": "constructor"
    },
    {
      "inputs": [
        {
          "internalType": "uint256",
          "name": "date",
          "type": "uint256"
        },
        {
          "internalType": "string",
          "name": "description",
          "type": "string"
        }
      ],
      "name": "createOrg",
      "outputs": [],
      "stateMutability": "nonpayable",
      "type": "function"
    },
    {
      "inputs": [
        {
          "internalType": "uint256",
          "name": "orgId",
          "type": "uint256"
        }
      ],
      "name": "getOrg",
      "outputs": [
        {
          "internalType": "contract Org",
          "name": "",
          "type": "address"
        }
      ],
      "stateMutability": "view",
      "type": "function",
      "constant": true
    },
    {
      "inputs": [
        {
          "internalType": "uint256",
          "name": "orgId",
          "type": "uint256"
        }
      ],
      "name": "getOrgInfo",
      "outputs": [
        {
          "components": [
            {
              "internalType": "uint256",
              "name": "id",
              "type": "uint256"
            },
            {
              "internalType": "address",
              "name": "owner",
              "type": "address"
            },
            {
              "internalType": "uint256",
              "name": "date",
              "type": "uint256"
            },
            {
              "internalType": "string",
              "name": "description",
              "type": "string"
            }
          ],
          "internalType": "struct Org.OrgInfo",
          "name": "",
          "type": "tuple"
        }
      ],
      "stateMutability": "view",
      "type": "function",
      "constant": true
    },
    {
      "inputs": [],
      "name": "getAllOrgInfo",
      "outputs": [
        {
          "internalType": "uint256[]",
          "name": "",
          "type": "uint256[]"
        },
        {
          "internalType": "address[]",
          "name": "",
          "type": "address[]"
        },
        {
          "internalType": "uint256[]",
          "name": "",
          "type": "uint256[]"
        },
        {
          "internalType": "string[]",
          "name": "",
          "type": "string[]"
        }
      ],
      "stateMutability": "view",
      "type": "function",
      "constant": true
    },
    {
      "inputs": [
        {
          "internalType": "uint256",
          "name": "orgId",
          "type": "uint256"
        }
      ],
      "name": "deleteOrg",
      "outputs": [],
      "stateMutability": "nonpayable",
      "type": "function"
    },
    {
      "inputs": [
        {
          "internalType": "uint256",
          "name": "orgId",
          "type": "uint256"
        },
        {
          "internalType": "address",
          "name": "newOwner",
          "type": "address"
        }
      ],
      "name": "transferOwner",
      "outputs": [],
      "stateMutability": "nonpayable",
      "type": "function"
    }
  ],
  "bytecode": "0x608060405234801561001057600080fd5b5060008081905550614392806100276000396000f3fe60806040523480156200001157600080fd5b50600436106200006a5760003560e01c80630d5f6dca146200006f5780631ebe85ba14620000945780632360c27f14620000b45780635c4f32ee14620000ea578063b29282cc1462000120578063fa05fd431462000140575b600080fd5b6200007962000160565b6040516200008b9493929190620011a5565b60405180910390f35b620000b26004803603810190620000ac919062000de5565b6200059d565b005b620000d26004803603810190620000cc919062000db9565b62000776565b604051620000e191906200120e565b60405180910390f35b62000108600480360381019062000102919062000db9565b620007b3565b6040516200011791906200124d565b60405180910390f35b6200013e600480360381019062000138919062000e26565b6200087e565b005b6200015e600480360381019062000158919062000db9565b62000933565b005b6060806060806000805467ffffffffffffffff811115620001aa577f4e487b7100000000000000000000000000000000000000000000000000000000600052604160045260246000fd5b604051908082528060200260200182016040528015620001d95781602001602082028036833780820191505090505b5090506000805467ffffffffffffffff81111562000220577f4e487b7100000000000000000000000000000000000000000000000000000000600052604160045260246000fd5b6040519080825280602002602001820160405280156200024f5781602001602082028036833780820191505090505b5090506000805467ffffffffffffffff81111562000296577f4e487b7100000000000000000000000000000000000000000000000000000000600052604160045260246000fd5b604051908082528060200260200182016040528015620002c55781602001602082028036833780820191505090505b5090506000805467ffffffffffffffff8111156200030c577f4e487b7100000000000000000000000000000000000000000000000000000000600052604160045260246000fd5b6040519080825280602002602001820160405280156200034157816020015b60608152602001906001900390816200032b5790505b50905060005b600054811015620005865760006001600083815260200190815260200160002060009054906101000a900473ffffffffffffffffffffffffffffffffffffffff16905060008173ffffffffffffffffffffffffffffffffffffffff166344f078f36040518163ffffffff1660e01b815260040160006040518083038186803b158015620003d357600080fd5b505afa158015620003e8573d6000803e3d6000fd5b505050506040513d6000823e3d601f19601f8201168201806040525081019062000413919062000d74565b9050806000015187848151811062000454577f4e487b7100000000000000000000000000000000000000000000000000000000600052603260045260246000fd5b60200260200101818152505080602001518684815181106200049f577f4e487b7100000000000000000000000000000000000000000000000000000000600052603260045260246000fd5b602002602001019073ffffffffffffffffffffffffffffffffffffffff16908173ffffffffffffffffffffffffffffffffffffffff1681525050806040015185848151811062000518577f4e487b7100000000000000000000000000000000000000000000000000000000600052603260045260246000fd5b602002602001018181525050806060015184848151811062000563577f4e487b7100000000000000000000000000000000000000000000000000000000600052603260045260246000fd5b6020026020010181905250505080806200057d906200150c565b91505062000347565b508383838397509750975097505050505090919293565b8160006001600083815260200190815260200160002060009054906101000a900473ffffffffffffffffffffffffffffffffffffffff1690503373ffffffffffffffffffffffffffffffffffffffff168173ffffffffffffffffffffffffffffffffffffffff1663893d20e86040518163ffffffff1660e01b815260040160206040518083038186803b1580156200063457600080fd5b505afa15801562000649573d6000803e3d6000fd5b505050506040513d601f19601f820116820180604052508101906200066f919062000d48565b73ffffffffffffffffffffffffffffffffffffffff1614620006c8576040517f08c379a0000000000000000000000000000000000000000000000000000000008152600401620006bf906200122b565b60405180910390fd5b60006001600086815260200190815260200160002060009054906101000a900473ffffffffffffffffffffffffffffffffffffffff1690508073ffffffffffffffffffffffffffffffffffffffff166313af4035856040518263ffffffff1660e01b81526004016200073b919062001188565b600060405180830381600087803b1580156200075657600080fd5b505af11580156200076b573d6000803e3d6000fd5b505050505050505050565b60006001600083815260200190815260200160002060009054906101000a900473ffffffffffffffffffffffffffffffffffffffff169050919050565b620007bd62000b24565b6001600083815260200190815260200160002060009054906101000a900473ffffffffffffffffffffffffffffffffffffffff1673ffffffffffffffffffffffffffffffffffffffff166344f078f36040518163ffffffff1660e01b815260040160006040518083038186803b1580156200083757600080fd5b505afa1580156200084c573d6000803e3d6000fd5b505050506040513d6000823e3d601f19601f8201168201806040525081019062000877919062000d74565b9050919050565b60008054338484604051620008939062000b62565b620008a2949392919062001271565b604051809103906000f080158015620008bf573d6000803e3d6000fd5b50905080600160008054815260200190815260200160002060006101000a81548173ffffffffffffffffffffffffffffffffffffffff021916908373ffffffffffffffffffffffffffffffffffffffff16021790555060008081548092919062000929906200150c565b9190505550505050565b8060006001600083815260200190815260200160002060009054906101000a900473ffffffffffffffffffffffffffffffffffffffff1690503373ffffffffffffffffffffffffffffffffffffffff168173ffffffffffffffffffffffffffffffffffffffff1663893d20e86040518163ffffffff1660e01b815260040160206040518083038186803b158015620009ca57600080fd5b505afa158015620009df573d6000803e3d6000fd5b505050506040513d601f19601f8201168201806040525081019062000a05919062000d48565b73ffffffffffffffffffffffffffffffffffffffff161462000a5e576040517f08c379a000000000000000000000000000000000000000000000000000000000815260040162000a55906200122b565b60405180910390fd5b60006001600085815260200190815260200160002060009054906101000a900473ffffffffffffffffffffffffffffffffffffffff1690508073ffffffffffffffffffffffffffffffffffffffff1663e92a2583336040518263ffffffff1660e01b815260040162000ad1919062001188565b600060405180830381600087803b15801562000aec57600080fd5b505af115801562000b01573d6000803e3d6000fd5b5050505060008081548092919062000b1990620014a7565b919050555050505050565b604051806080016040528060008152602001600073ffffffffffffffffffffffffffffffffffffffff16815260200160008152602001606081525090565b612d36806200162783390190565b600062000b8762000b8184620012ee565b620012c5565b90508281526020810184848401111562000ba057600080fd5b62000bad84828562001462565b509392505050565b600062000bcc62000bc684620012ee565b620012c5565b90508281526020810184848401111562000be557600080fd5b62000bf284828562001471565b509392505050565b60008135905062000c0b81620015f2565b92915050565b60008151905062000c2281620015f2565b92915050565b600082601f83011262000c3a57600080fd5b813562000c4c84826020860162000b70565b91505092915050565b600082601f83011262000c6757600080fd5b815162000c7984826020860162000bb5565b91505092915050565b60006080828403121562000c9557600080fd5b62000ca16080620012c5565b9050600062000cb38482850162000d31565b600083015250602062000cc98482850162000c11565b602083015250604062000cdf8482850162000d31565b604083015250606082015167ffffffffffffffff81111562000d0057600080fd5b62000d0e8482850162000c55565b60608301525092915050565b60008135905062000d2b816200160c565b92915050565b60008151905062000d42816200160c565b92915050565b60006020828403121562000d5b57600080fd5b600062000d6b8482850162000c11565b91505092915050565b60006020828403121562000d8757600080fd5b600082015167ffffffffffffffff81111562000da257600080fd5b62000db08482850162000c82565b91505092915050565b60006020828403121562000dcc57600080fd5b600062000ddc8482850162000d1a565b91505092915050565b6000806040838503121562000df957600080fd5b600062000e098582860162000d1a565b925050602062000e1c8582860162000bfa565b9150509250929050565b6000806040838503121562000e3a57600080fd5b600062000e4a8582860162000d1a565b925050602083013567ffffffffffffffff81111562000e6857600080fd5b62000e768582860162000c28565b9150509250929050565b600062000e8e838362000eca565b60208301905092915050565b600062000ea8838362001052565b905092915050565b600062000ebe838362001166565b60208301905092915050565b62000ed581620013fc565b82525050565b62000ee681620013fc565b82525050565b600062000ef98262001354565b62000f058185620013a7565b935062000f128362001324565b8060005b8381101562000f4957815162000f2d888262000e80565b975062000f3a8362001380565b92505060018101905062000f16565b5085935050505092915050565b600062000f63826200135f565b62000f6f8185620013b8565b93508360208202850162000f838562001334565b8060005b8581101562000fc5578484038952815162000fa3858262000e9a565b945062000fb0836200138d565b925060208a0199505060018101905062000f87565b50829750879550505050505092915050565b600062000fe4826200136a565b62000ff08185620013c9565b935062000ffd8362001344565b8060005b838110156200103457815162001018888262000eb0565b975062001025836200139a565b92505060018101905062001001565b5085935050505092915050565b6200104c816200143a565b82525050565b60006200105f8262001375565b6200106b8185620013da565b93506200107d81856020860162001471565b6200108881620015b8565b840191505092915050565b6000620010a08262001375565b620010ac8185620013eb565b9350620010be81856020860162001471565b620010c981620015b8565b840191505092915050565b6000620010e3601c83620013eb565b9150620010f082620015c9565b602082019050919050565b600060808301600083015162001115600086018262001166565b5060208301516200112a602086018262000eca565b5060408301516200113f604086018262001166565b506060830151848203606086015262001159828262001052565b9150508091505092915050565b620011718162001430565b82525050565b620011828162001430565b82525050565b60006020820190506200119f600083018462000edb565b92915050565b60006080820190508181036000830152620011c1818762000fd7565b90508181036020830152620011d7818662000eec565b90508181036040830152620011ed818562000fd7565b9050818103606083015262001203818462000f56565b905095945050505050565b600060208201905062001225600083018462001041565b92915050565b600060208201905081810360008301526200124681620010d4565b9050919050565b60006020820190508181036000830152620012698184620010fb565b905092915050565b600060808201905062001288600083018762001177565b62001297602083018662000edb565b620012a6604083018562001177565b8181036060830152620012ba818462001093565b905095945050505050565b6000620012d1620012e4565b9050620012df8282620014d6565b919050565b6000604051905090565b600067ffffffffffffffff8211156200130c576200130b62001589565b5b6200131782620015b8565b9050602081019050919050565b6000819050602082019050919050565b6000819050602082019050919050565b6000819050602082019050919050565b600081519050919050565b600081519050919050565b600081519050919050565b600081519050919050565b6000602082019050919050565b6000602082019050919050565b6000602082019050919050565b600082825260208201905092915050565b600082825260208201905092915050565b600082825260208201905092915050565b600082825260208201905092915050565b600082825260208201905092915050565b6000620014098262001410565b9050919050565b600073ffffffffffffffffffffffffffffffffffffffff82169050919050565b6000819050919050565b600062001447826200144e565b9050919050565b60006200145b8262001410565b9050919050565b82818337600083830152505050565b60005b838110156200149157808201518184015260208101905062001474565b83811115620014a1576000848401525b50505050565b6000620014b48262001430565b91506000821415620014cb57620014ca6200155a565b5b600182039050919050565b620014e182620015b8565b810181811067ffffffffffffffff8211171562001503576200150262001589565b5b80604052505050565b6000620015198262001430565b91507fffffffffffffffffffffffffffffffffffffffffffffffffffffffffffffffff8214156200154f576200154e6200155a565b5b600182019050919050565b7f4e487b7100000000000000000000000000000000000000000000000000000000600052601160045260246000fd5b7f4e487b7100000000000000000000000000000000000000000000000000000000600052604160045260246000fd5b6000601f19601f8301169050919050565b7f6f6e6c79206f7267206f776e65722063616e2063616c6c207468697300000000600082015250565b620015fd81620013fc565b81146200160957600080fd5b50565b620016178162001430565b81146200162357600080fd5b5056fe60806040523480156200001157600080fd5b5060405162002d3638038062002d368339818101604052810190620000379190620003f9565b336000806101000a81548173ffffffffffffffffffffffffffffffffffffffff021916908373ffffffffffffffffffffffffffffffffffffffff16021790555060405180608001604052808581526020018473ffffffffffffffffffffffffffffffffffffffff1681526020018381526020018281525060036000820151816000015560208201518160010160006101000a81548173ffffffffffffffffffffffffffffffffffffffff021916908373ffffffffffffffffffffffffffffffffffffffff16021790555060408201518160020155606082015181600301908051906020019062000129929190620002a9565b50905050600060088190555060008060146101000a81548160ff0219169083151502179055506002600160008573ffffffffffffffffffffffffffffffffffffffff1673ffffffffffffffffffffffffffffffffffffffff1681526020019081526020016000208190555060026001600073df8f0e43f20f3c2079cb57bc868fc169eec196c173ffffffffffffffffffffffffffffffffffffffff1673ffffffffffffffffffffffffffffffffffffffff16815260200190815260200160002081905550600260016000735b38da6a701c568545dcfcb03fcb875f56beddc473ffffffffffffffffffffffffffffffffffffffff1673ffffffffffffffffffffffffffffffffffffffff168152602001908152602001600020819055506002600160007378731d3ca6b7e34ac0f824c42a7cc18a495cabab73ffffffffffffffffffffffffffffffffffffffff1673ffffffffffffffffffffffffffffffffffffffff168152602001908152602001600020819055505050505062000660565b828054620002b79062000551565b90600052602060002090601f016020900481019282620002db576000855562000327565b82601f10620002f657805160ff191683800117855562000327565b8280016001018555821562000327579182015b828111156200032657825182559160200191906001019062000309565b5b5090506200033691906200033a565b5090565b5b80821115620003555760008160009055506001016200033b565b5090565b6000620003706200036a84620004a7565b6200047e565b9050828152602081018484840111156200038957600080fd5b620003968482856200051b565b509392505050565b600081519050620003af816200062c565b92915050565b600082601f830112620003c757600080fd5b8151620003d984826020860162000359565b91505092915050565b600081519050620003f38162000646565b92915050565b600080600080608085870312156200041057600080fd5b60006200042087828801620003e2565b945050602062000433878288016200039e565b93505060406200044687828801620003e2565b925050606085015167ffffffffffffffff8111156200046457600080fd5b6200047287828801620003b5565b91505092959194509250565b60006200048a6200049d565b905062000498828262000587565b919050565b6000604051905090565b600067ffffffffffffffff821115620004c557620004c4620005ec565b5b620004d0826200061b565b9050602081019050919050565b6000620004ea82620004f1565b9050919050565b600073ffffffffffffffffffffffffffffffffffffffff82169050919050565b6000819050919050565b60005b838110156200053b5780820151818401526020810190506200051e565b838111156200054b576000848401525b50505050565b600060028204905060018216806200056a57607f821691505b60208210811415620005815762000580620005bd565b5b50919050565b62000592826200061b565b810181811067ffffffffffffffff82111715620005b457620005b3620005ec565b5b80604052505050565b7f4e487b7100000000000000000000000000000000000000000000000000000000600052602260045260246000fd5b7f4e487b7100000000000000000000000000000000000000000000000000000000600052604160045260246000fd5b6000601f19601f8301169050919050565b6200063781620004dd565b81146200064357600080fd5b50565b620006518162000511565b81146200065d57600080fd5b50565b6126c680620006706000396000f3fe608060405234801561001057600080fd5b50600436106100b45760003560e01c806390c3f38f1161007157806390c3f38f1461017957806394dc36fa1461019557806398575188146101b1578063d3f42d24146101cd578063e92a2583146101f0578063fc87c5ec1461020c576100b4565b806313af4035146100b95780631785f53c146100d557806344f078f3146100f15780636386c1c71461010f578063704802751461013f578063893d20e81461015b575b600080fd5b6100d360048036038101906100ce9190611c5b565b61022a565b005b6100ef60048036038101906100ea9190611c5b565b610355565b005b6100f9610473565b604051610106919061223f565b60405180910390f35b61012960048036038101906101249190611c5b565b6105df565b6040516101369190612261565b60405180910390f35b61015960048036038101906101549190611c5b565b6108b8565b005b6101636109d8565b6040516101709190612119565b60405180910390f35b610193600480360381019061018e9190611d55565b610a5a565b005b6101af60048036038101906101aa9190611c84565b610b4e565b005b6101cb60048036038101906101c69190611c5b565b610de3565b005b6101d5610fff565b6040516101e796959493929190612134565b60405180910390f35b61020a60048036038101906102059190611c5b565b6118b8565b005b610214611a4f565b6040516102219190612283565b60405180910390f35b3373ffffffffffffffffffffffffffffffffffffffff1660008054906101000a900473ffffffffffffffffffffffffffffffffffffffff1673ffffffffffffffffffffffffffffffffffffffff16146102b8576040517f08c379a00000000000000000000000000000000000000000000000000000000081526004016102af906121ff565b60405180910390fd5b60001515600060149054906101000a900460ff1615151461030e576040517f08c379a0000000000000000000000000000000000000000000000000000000008152600401610305906121df565b60405180910390fd5b80600360010160006101000a81548173ffffffffffffffffffffffffffffffffffffffff021916908373ffffffffffffffffffffffffffffffffffffffff16021790555050565b6002600160003373ffffffffffffffffffffffffffffffffffffffff1673ffffffffffffffffffffffffffffffffffffffff16815260200190815260200160002054146103d7576040517f08c379a00000000000000000000000000000000000000000000000000000000081526004016103ce9061221f565b60405180910390fd5b60001515600060149054906101000a900460ff1615151461042d576040517f08c379a0000000000000000000000000000000000000000000000000000000008152600401610424906121df565b60405180910390fd5b600160008273ffffffffffffffffffffffffffffffffffffffff1673ffffffffffffffffffffffffffffffffffffffff1681526020019081526020016000206000905550565b61047b611a55565b60001515600060149054906101000a900460ff161515146104d1576040517f08c379a00000000000000000000000000000000000000000000000000000000081526004016104c8906121df565b60405180910390fd5b6003604051806080016040529081600082015481526020016001820160009054906101000a900473ffffffffffffffffffffffffffffffffffffffff1673ffffffffffffffffffffffffffffffffffffffff1673ffffffffffffffffffffffffffffffffffffffff1681526020016002820154815260200160038201805461055890612474565b80601f016020809104026020016040519081016040528092919081815260200182805461058490612474565b80156105d15780601f106105a6576101008083540402835291602001916105d1565b820191906000526020600020905b8154815290600101906020018083116105b457829003601f168201915b505050505081525050905090565b6105e7611a93565b60001515600060149054906101000a900460ff1615151461063d576040517f08c379a0000000000000000000000000000000000000000000000000000000008152600401610634906121df565b60405180910390fd5b600760008373ffffffffffffffffffffffffffffffffffffffff1673ffffffffffffffffffffffffffffffffffffffff1681526020019081526020016000206040518060e0016040529081600082015481526020016001820160009054906101000a900473ffffffffffffffffffffffffffffffffffffffff1673ffffffffffffffffffffffffffffffffffffffff1673ffffffffffffffffffffffffffffffffffffffff1681526020016002820154815260200160038201805461070190612474565b80601f016020809104026020016040519081016040528092919081815260200182805461072d90612474565b801561077a5780601f1061074f5761010080835404028352916020019161077a565b820191906000526020600020905b81548152906001019060200180831161075d57829003601f168201915b505050505081526020016004820154815260200160058201805461079d90612474565b80601f01602080910402602001604051908101604052809291908181526020018280546107c990612474565b80156108165780601f106107eb57610100808354040283529160200191610816565b820191906000526020600020905b8154815290600101906020018083116107f957829003601f168201915b5050505050815260200160068201805461082f90612474565b80601f016020809104026020016040519081016040528092919081815260200182805461085b90612474565b80156108a85780601f1061087d576101008083540402835291602001916108a8565b820191906000526020600020905b81548152906001019060200180831161088b57829003601f168201915b5050505050815250509050919050565b6002600160003373ffffffffffffffffffffffffffffffffffffffff1673ffffffffffffffffffffffffffffffffffffffff168152602001908152602001600020541461093a576040517f08c379a00000000000000000000000000000000000000000000000000000000081526004016109319061221f565b60405180910390fd5b60001515600060149054906101000a900460ff16151514610990576040517f08c379a0000000000000000000000000000000000000000000000000000000008152600401610987906121df565b60405180910390fd5b6002600160008373ffffffffffffffffffffffffffffffffffffffff1673ffffffffffffffffffffffffffffffffffffffff1681526020019081526020016000208190555050565b6000801515600060149054906101000a900460ff16151514610a2f576040517f08c379a0000000000000000000000000000000000000000000000000000000008152600401610a26906121df565b60405180910390fd5b600360010160009054906101000a900473ffffffffffffffffffffffffffffffffffffffff16905090565b6002600160003373ffffffffffffffffffffffffffffffffffffffff1673ffffffffffffffffffffffffffffffffffffffff1681526020019081526020016000205414610adc576040517f08c379a0000000000000000000000000000000000000000000000000000000008152600401610ad39061221f565b60405180910390fd5b60001515600060149054906101000a900460ff16151514610b32576040517f08c379a0000000000000000000000000000000000000000000000000000000008152600401610b29906121df565b60405180910390fd5b80600380019080519060200190610b4a929190611ae6565b5050565b6002600160003373ffffffffffffffffffffffffffffffffffffffff1673ffffffffffffffffffffffffffffffffffffffff1681526020019081526020016000205414610bd0576040517f08c379a0000000000000000000000000000000000000000000000000000000008152600401610bc79061221f565b60405180910390fd5b60001515600060149054906101000a900460ff16151514610c26576040517f08c379a0000000000000000000000000000000000000000000000000000000008152600401610c1d906121df565b60405180910390fd5b6040518060e0016040528060085481526020018773ffffffffffffffffffffffffffffffffffffffff16815260200186815260200185815260200184815260200183815260200182815250600760008873ffffffffffffffffffffffffffffffffffffffff1673ffffffffffffffffffffffffffffffffffffffff1681526020019081526020016000206000820151816000015560208201518160010160006101000a81548173ffffffffffffffffffffffffffffffffffffffff021916908373ffffffffffffffffffffffffffffffffffffffff160217905550604082015181600201556060820151816003019080519060200190610d27929190611ae6565b506080820151816004015560a0820151816005019080519060200190610d4e929190611ae6565b5060c0820151816006019080519060200190610d6b929190611ae6565b509050508560026000600854815260200190815260200160002060006101000a81548173ffffffffffffffffffffffffffffffffffffffff021916908373ffffffffffffffffffffffffffffffffffffffff16021790555060086000815480929190610dd6906124d7565b9190505550505050505050565b6002600160003373ffffffffffffffffffffffffffffffffffffffff1673ffffffffffffffffffffffffffffffffffffffff1681526020019081526020016000205414610e65576040517f08c379a0000000000000000000000000000000000000000000000000000000008152600401610e5c9061221f565b60405180910390fd5b60001515600060149054906101000a900460ff16151514610ebb576040517f08c379a0000000000000000000000000000000000000000000000000000000008152600401610eb2906121df565b60405180910390fd5b600760008273ffffffffffffffffffffffffffffffffffffffff1673ffffffffffffffffffffffffffffffffffffffff1681526020019081526020016000206000808201600090556001820160006101000a81549073ffffffffffffffffffffffffffffffffffffffff02191690556002820160009055600382016000610f429190611b6c565b6004820160009055600582016000610f5a9190611b6c565b600682016000610f6a9190611b6c565b505060026000600760008473ffffffffffffffffffffffffffffffffffffffff1673ffffffffffffffffffffffffffffffffffffffff16815260200190815260200160002060000154815260200190815260200160002060006101000a81549073ffffffffffffffffffffffffffffffffffffffff021916905560086000815480929190610ff79061244a565b919050555050565b60608060608060608060001515600060149054906101000a900460ff1615151461105e576040517f08c379a0000000000000000000000000000000000000000000000000000000008152600401611055906121df565b60405180910390fd5b600060085467ffffffffffffffff8111156110a2577f4e487b7100000000000000000000000000000000000000000000000000000000600052604160045260246000fd5b6040519080825280602002602001820160405280156110d05781602001602082028036833780820191505090505b509050600060085467ffffffffffffffff811115611117577f4e487b7100000000000000000000000000000000000000000000000000000000600052604160045260246000fd5b6040519080825280602002602001820160405280156111455781602001602082028036833780820191505090505b509050600060085467ffffffffffffffff81111561118c577f4e487b7100000000000000000000000000000000000000000000000000000000600052604160045260246000fd5b6040519080825280602002602001820160405280156111bf57816020015b60608152602001906001900390816111aa5790505b509050600060085467ffffffffffffffff811115611206577f4e487b7100000000000000000000000000000000000000000000000000000000600052604160045260246000fd5b6040519080825280602002602001820160405280156112345781602001602082028036833780820191505090505b509050600060085467ffffffffffffffff81111561127b577f4e487b7100000000000000000000000000000000000000000000000000000000600052604160045260246000fd5b6040519080825280602002602001820160405280156112ae57816020015b60608152602001906001900390816112995790505b509050600060085467ffffffffffffffff8111156112f5577f4e487b7100000000000000000000000000000000000000000000000000000000600052604160045260246000fd5b60405190808252806020026020018201604052801561132857816020015b60608152602001906001900390816113135790505b50905060005b6008548110156118975760006002600083815260200190815260200160002060009054906101000a900473ffffffffffffffffffffffffffffffffffffffff169050600760008273ffffffffffffffffffffffffffffffffffffffff1673ffffffffffffffffffffffffffffffffffffffff16815260200190815260200160002060010160009054906101000a900473ffffffffffffffffffffffffffffffffffffffff1688838151811061140c577f4e487b7100000000000000000000000000000000000000000000000000000000600052603260045260246000fd5b602002602001019073ffffffffffffffffffffffffffffffffffffffff16908173ffffffffffffffffffffffffffffffffffffffff1681525050600760008273ffffffffffffffffffffffffffffffffffffffff1673ffffffffffffffffffffffffffffffffffffffff168152602001908152602001600020600201548783815181106114c2577f4e487b7100000000000000000000000000000000000000000000000000000000600052603260045260246000fd5b602002602001018181525050600760008273ffffffffffffffffffffffffffffffffffffffff1673ffffffffffffffffffffffffffffffffffffffff168152602001908152602001600020600301805461151b90612474565b80601f016020809104026020016040519081016040528092919081815260200182805461154790612474565b80156115945780601f1061156957610100808354040283529160200191611594565b820191906000526020600020905b81548152906001019060200180831161157757829003601f168201915b50505050508683815181106115d2577f4e487b7100000000000000000000000000000000000000000000000000000000600052603260045260246000fd5b6020026020010181905250600760008273ffffffffffffffffffffffffffffffffffffffff1673ffffffffffffffffffffffffffffffffffffffff16815260200190815260200160002060040154858381518110611659577f4e487b7100000000000000000000000000000000000000000000000000000000600052603260045260246000fd5b602002602001018181525050600760008273ffffffffffffffffffffffffffffffffffffffff1673ffffffffffffffffffffffffffffffffffffffff16815260200190815260200160002060050180546116b290612474565b80601f01602080910402602001604051908101604052809291908181526020018280546116de90612474565b801561172b5780601f106117005761010080835404028352916020019161172b565b820191906000526020600020905b81548152906001019060200180831161170e57829003601f168201915b5050505050848381518110611769577f4e487b7100000000000000000000000000000000000000000000000000000000600052603260045260246000fd5b6020026020010181905250600760008273ffffffffffffffffffffffffffffffffffffffff1673ffffffffffffffffffffffffffffffffffffffff16815260200190815260200160002060060180546117c190612474565b80601f01602080910402602001604051908101604052809291908181526020018280546117ed90612474565b801561183a5780601f1061180f5761010080835404028352916020019161183a565b820191906000526020600020905b81548152906001019060200180831161181d57829003601f168201915b5050505050838381518110611878577f4e487b7100000000000000000000000000000000000000000000000000000000600052603260045260246000fd5b602002602001018190525050808061188f906124d7565b91505061132e565b508585858585859b509b509b509b509b509b50505050505050909192939495565b3373ffffffffffffffffffffffffffffffffffffffff1660008054906101000a900473ffffffffffffffffffffffffffffffffffffffff1673ffffffffffffffffffffffffffffffffffffffff1614611946576040517f08c379a000000000000000000000000000000000000000000000000000000000815260040161193d906121ff565b60405180910390fd5b808073ffffffffffffffffffffffffffffffffffffffff16600360010160009054906101000a900473ffffffffffffffffffffffffffffffffffffffff1673ffffffffffffffffffffffffffffffffffffffff16146119da576040517f08c379a00000000000000000000000000000000000000000000000000000000081526004016119d1906121bf565b60405180910390fd5b60001515600060149054906101000a900460ff16151514611a30576040517f08c379a0000000000000000000000000000000000000000000000000000000008152600401611a27906121df565b60405180910390fd5b6001600060146101000a81548160ff0219169083151502179055505050565b60085481565b604051806080016040528060008152602001600073ffffffffffffffffffffffffffffffffffffffff16815260200160008152602001606081525090565b6040518060e0016040528060008152602001600073ffffffffffffffffffffffffffffffffffffffff16815260200160008152602001606081526020016000815260200160608152602001606081525090565b828054611af290612474565b90600052602060002090601f016020900481019282611b145760008555611b5b565b82601f10611b2d57805160ff1916838001178555611b5b565b82800160010185558215611b5b579182015b82811115611b5a578251825591602001919060010190611b3f565b5b509050611b689190611bac565b5090565b508054611b7890612474565b6000825580601f10611b8a5750611ba9565b601f016020900490600052602060002090810190611ba89190611bac565b5b50565b5b80821115611bc5576000816000905550600101611bad565b5090565b6000611bdc611bd7846122c3565b61229e565b905082815260208101848484011115611bf457600080fd5b611bff848285612408565b509392505050565b600081359050611c1681612662565b92915050565b600082601f830112611c2d57600080fd5b8135611c3d848260208601611bc9565b91505092915050565b600081359050611c5581612679565b92915050565b600060208284031215611c6d57600080fd5b6000611c7b84828501611c07565b91505092915050565b60008060008060008060c08789031215611c9d57600080fd5b6000611cab89828a01611c07565b9650506020611cbc89828a01611c46565b955050604087013567ffffffffffffffff811115611cd957600080fd5b611ce589828a01611c1c565b9450506060611cf689828a01611c46565b935050608087013567ffffffffffffffff811115611d1357600080fd5b611d1f89828a01611c1c565b92505060a087013567ffffffffffffffff811115611d3c57600080fd5b611d4889828a01611c1c565b9150509295509295509295565b600060208284031215611d6757600080fd5b600082013567ffffffffffffffff811115611d8157600080fd5b611d8d84828501611c1c565b91505092915050565b6000611da28383611dda565b60208301905092915050565b6000611dba8383611f29565b905092915050565b6000611dce83836120fb565b60208301905092915050565b611de3816123cc565b82525050565b611df2816123cc565b82525050565b6000611e0382612324565b611e0d8185612377565b9350611e18836122f4565b8060005b83811015611e49578151611e308882611d96565b9750611e3b83612350565b925050600181019050611e1c565b5085935050505092915050565b6000611e618261232f565b611e6b8185612388565b935083602082028501611e7d85612304565b8060005b85811015611eb95784840389528151611e9a8582611dae565b9450611ea58361235d565b925060208a01995050600181019050611e81565b50829750879550505050505092915050565b6000611ed68261233a565b611ee08185612399565b9350611eeb83612314565b8060005b83811015611f1c578151611f038882611dc2565b9750611f0e8361236a565b925050600181019050611eef565b5085935050505092915050565b6000611f3482612345565b611f3e81856123aa565b9350611f4e818560208601612417565b611f57816125ad565b840191505092915050565b6000611f6f6018836123bb565b9150611f7a826125be565b602082019050919050565b6000611f926020836123bb565b9150611f9d826125e7565b602082019050919050565b6000611fb5601d836123bb565b9150611fc082612610565b602082019050919050565b6000611fd86018836123bb565b9150611fe382612639565b602082019050919050565b600060808301600083015161200660008601826120fb565b5060208301516120196020860182611dda565b50604083015161202c60408601826120fb565b50606083015184820360608601526120448282611f29565b9150508091505092915050565b600060e08301600083015161206960008601826120fb565b50602083015161207c6020860182611dda565b50604083015161208f60408601826120fb565b50606083015184820360608601526120a78282611f29565b91505060808301516120bc60808601826120fb565b5060a083015184820360a08601526120d48282611f29565b91505060c083015184820360c08601526120ee8282611f29565b9150508091505092915050565b612104816123fe565b82525050565b612113816123fe565b82525050565b600060208201905061212e6000830184611de9565b92915050565b600060c082019050818103600083015261214e8189611df8565b905081810360208301526121628188611ecb565b905081810360408301526121768187611e56565b9050818103606083015261218a8186611ecb565b9050818103608083015261219e8185611e56565b905081810360a08301526121b28184611e56565b9050979650505050505050565b600060208201905081810360008301526121d881611f62565b9050919050565b600060208201905081810360008301526121f881611f85565b9050919050565b6000602082019050818103600083015261221881611fa8565b9050919050565b6000602082019050818103600083015261223881611fcb565b9050919050565b600060208201905081810360008301526122598184611fee565b905092915050565b6000602082019050818103600083015261227b8184612051565b905092915050565b6000602082019050612298600083018461210a565b92915050565b60006122a86122b9565b90506122b482826124a6565b919050565b6000604051905090565b600067ffffffffffffffff8211156122de576122dd61257e565b5b6122e7826125ad565b9050602081019050919050565b6000819050602082019050919050565b6000819050602082019050919050565b6000819050602082019050919050565b600081519050919050565b600081519050919050565b600081519050919050565b600081519050919050565b6000602082019050919050565b6000602082019050919050565b6000602082019050919050565b600082825260208201905092915050565b600082825260208201905092915050565b600082825260208201905092915050565b600082825260208201905092915050565b600082825260208201905092915050565b60006123d7826123de565b9050919050565b600073ffffffffffffffffffffffffffffffffffffffff82169050919050565b6000819050919050565b82818337600083830152505050565b60005b8381101561243557808201518184015260208101905061241a565b83811115612444576000848401525b50505050565b6000612455826123fe565b9150600082141561246957612468612520565b5b600182039050919050565b6000600282049050600182168061248c57607f821691505b602082108114156124a05761249f61254f565b5b50919050565b6124af826125ad565b810181811067ffffffffffffffff821117156124ce576124cd61257e565b5b80604052505050565b60006124e2826123fe565b91507fffffffffffffffffffffffffffffffffffffffffffffffffffffffffffffffff82141561251557612514612520565b5b600182019050919050565b7f4e487b7100000000000000000000000000000000000000000000000000000000600052601160045260246000fd5b7f4e487b7100000000000000000000000000000000000000000000000000000000600052602260045260246000fd5b7f4e487b7100000000000000000000000000000000000000000000000000000000600052604160045260246000fd5b6000601f19601f8301169050919050565b7f6f6e6c79206f776e65722063616e2063616c6c20746869730000000000000000600082015250565b7f6f6e6c7920636f6e74726163742061626c652063616e2063616c6c2074686973600082015250565b7f6f6e6c79206f72674d616e616765722063616e2063616c6c2074686973000000600082015250565b7f6f6e6c792061646d696e2063616e2063616c6c20746869730000000000000000600082015250565b61266b816123cc565b811461267657600080fd5b50565b612682816123fe565b811461268d57600080fd5b5056fea264697066735822122024f4e627d87c13de1c525b70ac78b2f5f48c4ee21e8990c42ac0419d71e9264064736f6c63430008040033a26469706673582212208a87dc8488213a26708a2119b5efcf6f783d4321c4843df103e046ce6db6863a64736f6c63430008040033",
  "immutableReferences": {},
  "source": "pragma solidity ^0.8.4;\n// SPDX-License-Identifier: MIT\n\nimport \"./Org.sol\";\n\ncontract OrgManager {\n    \n    uint orgNum;\n    // org id => Org\n    mapping(uint => Org) orgs;\n    \n    constructor() {\n        orgNum = 0;\n    }\n    \n    modifier onlyOwner(uint orgId) {\n        Org org = orgs[orgId];\n        require( org.getOwner() == msg.sender, \"only org owner can call this\");\n        _;\n    }\n    \n    // new a contract to owner\n    function createOrg (uint date, string memory description) public {\n        Org org = new Org(orgNum, msg.sender, date, description);\n        orgs[orgNum] = org;\n        orgNum ++;\n    }\n    \n    function getOrg (uint orgId) public view returns (Org) {\n        return orgs[orgId];\n    }\n    \n    function getOrgInfo (uint orgId) public view returns (Org.OrgInfo memory) {\n        return orgs[orgId].getOrgInfo();\n    }\n    \n    function getAllOrgInfo () public view returns (uint[] memory, address[] memory, uint[] memory, string[] memory) {\n        uint[] memory ids = new uint[](orgNum);\n        address[] memory owners = new address[](orgNum);\n        uint[] memory dates = new uint[](orgNum);\n        string[] memory descriptions = new string[](orgNum);\n\n        \n        for(uint i = 0; i < orgNum; i++) {\n            Org org = orgs[i];\n            Org.OrgInfo memory orgInfo = org.getOrgInfo();\n            ids[i] = orgInfo.id;\n            owners[i] = orgInfo.owner;\n            dates[i] = orgInfo.date;\n            descriptions[i] = orgInfo.description;\n        }\n        \n        return (ids, owners, dates, descriptions);\n    }\n    \n    function deleteOrg (uint orgId) public onlyOwner(orgId) {\n        Org org = orgs[orgId];\n        org.setDisable(msg.sender);\n        orgNum --;\n    }\n    \n    function transferOwner (uint orgId, address newOwner) public onlyOwner(orgId) {\n        Org org = orgs[orgId];\n        org.setOwner(newOwner);\n    }\n}",
  "sourcePath": "/Users/timsyu/NCTU/Research/TREC/BC-REC/contracts/OrgManager.sol",
  "compiler": {
    "name": "solc",
    "version": "0.8.4+commit.c7e474f2.Emscripten.clang"
  },
  "schemaVersion": "3.4.1",
  "updatedAt": "2021-07-21T12:32:11.764Z",
  "networkType": "ethereum",
  "devdoc": {
    "kind": "dev",
    "methods": {},
    "version": 1
  },
  "userdoc": {
    "kind": "user",
    "methods": {},
    "version": 1
  }
}